:10000000CEC10000E9C10000E6C10000E4C100006B
:10001000E2C10000E0C10000DEC10000DCC1000060
:10002000DAC10000D8C1000073C60000D1C60000CC
:10003000D2C10000D0C10000CEC10000CCC1000080
:10004000CAC10000C8C10000C6C10000C4C1000090
:10005000C2C10000C0C10000BEC10000BCC10000A0
:10006000BAC10000B8C10000B6C10000B4C10000B0
:10007000B2C10000B0C10000AEC10000ACC10000C0
:10008000AAC10000A8C10000A6C10000A4C10000D0
:10009000A2C10000A0C100009EC100009CC10000E0
:1000A0009AC1000098C1000096C1000000016401DF
:1000B0000112000220010122002132010109002267
:1000C000CC02016E00017601011200022001012222
:1000D0000021320101090022CC02016E00018801D9
:1000E00001120002420101220021540101090022F3
:1000F0003A0301640003C8020104010396020132BD
:1001000002030000020A0303480201440403F6014B
:10011000015205039A01015C00000001C1060000C4
:1001200009022200010100803209040000010300DD
:100130000000092111010001226E00070584030857
:1001400000020902220001010080320904000001BE
:100150000300000009211101000122640007058449
:1001600003080002120100020000004041230500C4
:1001700000040105020112010002000000404123B9
:100180003680000401040201120100020000004058
:10019000412302000004010302015C034D006900D9
:1001A000630072006F0073006F006600740020002F
:1001B0005300690064006500570069006E00640028
:1001C00065007200200046006F0072006300650049
:1001D0002000460065006500640062006100630065
:1001E0006B002000500072006F00200028005500B6
:1001F00053004200290052034D0069006300720061
:100200006F0073006F0066007400200053004B0005
:1002100053006500570069006E00640065007200BD
:1002200020005000720065006300690073006900DF
:100230006F006E002000500072006F002000280048
:10024000550053004200290044034D00690063003B
:1002500072006F0073006F0066007400200053008E
:10026000690064006500570069006E006400650065
:1002700072002000330044002000500072006F0024
:100280002000280055005300420029000A033000D6
:1002900033003300330032034400650074006C0007
:1002A0006500660020003C004700720065006E009B
:1002B000640065006C003E0020004D007500650084
:1002C0006C006C0065007200040309040501090458
:1002D000A1010901A1009502750A1600FE26FF0181
:1002E000350046FF03093009318102950175041577
:1002F000002507463B01651409398142750615E062
:10030000251F452E09358102950975011500250126
:1003100045016500A40509190129098102C0B495A8
:1003200001750715C0253F457F0936810275028199
:1003300001C0000000000000000005010904A10147
:100340000901A1009502750A1600FE26FF0135007D
:1003500046FF03A409300931810295017509160091
:10036000FF26FF00452E651409358102750415002E
:100370002507463B0109398142950875012501454C
:100380000165000509190129088102C0B495010918
:1003900036810275058101C00000000000001124B3
:1003A0001FBECFEFDAE0DEBFCDBF14BE0FB6F894AC
:1003B000A895809160008861809360001092600031
:1003C0000FBE21E0A0E0B1E001C01D92A737B20747
:1003D000E1F7A2D14EC614CE5F935FB75F9357EE9D
:1003E00056BD4F93AF93BF93B0915801A091570161
:1003F00050915901452F53955093590159B1529538
:10040000507E477069F04530B9F0423069F04330B2
:10041000F1F04630E9F04130E1F04430D9F01BC052
:10042000529556955E931AC0550F4C91542B5C9380
:100430005527551F5E9312C057FB550F550F4C9112
:10044000542B5C935527551F51F95E9307C0569561
:100450005695569556954C91542B5C93A093570105
:10046000B0935801BF91AF914F915F915FBF5F9182
:100470001895DC0154E0A50F5C91509550FB509508
:10048000A1503C913695579550936D0142E0340F41
:1004900033705C91A1504C91469557955C7F532BDE
:1004A00050936E0138E0430F4F70A2505C91550F8E
:1004B000550F5051507F542B50936F013C9142E0A7
:1004C000340F3370A3954C91407F342B3295330F0A
:1004D000330F54E0A50F5C9150955695379556957E
:1004E00037953093700156F9A3504C9145FB57F95D
:1004F00050937101A1505C9138E0530F5F70440F2D
:10050000551F440F551F509372010895DC0145E0BB
:10051000A40F5C91A395A3953C913873330F32954A
:10052000550F369557954EEF340F337050936D013C
:100530004C914770A3505C91550F469557952EEFFF
:10054000420F4370550F441F550F441F532B5093B8
:100550006E01342FA2505C91A3954C914871550FB8
:10056000440F429546955795409540FB5295452F2F
:10057000407F432B40936F015F7054F9352FA35098
:100580005C91507747E0A40F4C9146FB57F95051CE
:1005900057FB550F532B50937001332730F9AA9511
:1005A0005C91A3504C9146FB57F950954427550F49
:1005B000441F532B50937101342FA2505C91A3958B
:1005C000A3954C914770550F469557952EEF420FC6
:1005D000437057FB550F532B50937201440F40F952
:1005E000409373010895482F362F8827F894E09A96
:1005F000E89A2227489B2FEF51E053BD5CE956BD96
:10060000A89A2093590157E55093570151E0509310
:10061000580178942498259850E05A95F1F7249A37
:10062000259A50915901521719F4A89BFACF0895B1
:1006300050915901521B250F231728F444238AF7A0
:10064000450F7AF3E7CF83950895CDDF8823A9F08E
:1006500050915901563189F4F89455275093590116
:10066000509157014091580131E0530F3327431FF8
:1006700050935701409358017894089590915B01ED
:1006800080916F01807F80935A011092640187FDF1
:1006900023C08033D1F040F4803199F0803299F05A
:1006A00081111AC084E016C0803589F020F48034AE
:1006B00099F480E10FC0803661F0803769F484E2FC
:1006C00009C08CE007C088E005C088E103C080E372
:1006D00001C080E2809364012091710180916401E6
:1006E000822B809369018093710180E0915098F092
:1006F000292F30E0F901E359FE4F4081F901E35A17
:10070000FE4F5081541791F34083F901EB59FE4F8E
:10071000408381E0EBCF08952CD18091740181302A
:1007200011F086E001C087E080935B0183D278946A
:1007300083E08093810085E085BDA0DFD82ED1E0E5
:1007400000E010E088E1E82E8CEFF82EC1E091ED9A
:10075000C92E2AE0B22EA12C33E0932E45E0842E40
:1007600058E1752E6DE0662EA8958FD2882309F486
:100770005CC0DD2309F180E89A2D0FB6F8948093D0
:100780006100909361000FBE80916400877D80932B
:10079000640080916C0180935C01C6BCC5BBF09283
:1007A0008500E0928400C6BB0FB6F894A8957092BD
:1007B00060000FBE60926000A89B0AC095BCABD1E0
:1007C00085BCC6BCC5BB5ADF882311F0DD24D39499
:1007D000B09903C0DD2039F112C0F0928500E0929B
:1007E0008400C6BB80915C01815080935C018111C3
:1007F000F1CF80916C01882369F3DD24D39452D228
:10080000811111C05E9A60915B0185E691E063D22F
:1008100080916C0180935C01F0928500E0928400ED
:10082000C6BB5E98D12CD0E09FCF80917601882303
:1008300009F43BC0D1111CC00FB6F894A895809163
:100840006000886180936000109260000FBE80910C
:10085000640088628093640080E80FB6F894809307
:100860006100C09361000FBEB0925C010FEF1FEFFB
:100870000150110911F0D1E077CF80915C018150D6
:1008800080935C01882321F0D1E00FEF1FEF6CCF44
:100890005E9B04C0B0925C015E98F6CFC0935C0191
:1008A0005E9AD1E00EE110E05FCFF0928500E09219
:1008B0008400C6BBC6BCC5BB57CF9C0193B5916035
:1008C00093BD309385002093840081E086BBB09B6C
:1008D000FECF089593B5916093BD86BD81E085BB41
:1008E000A89BFECF08952498259884EFF3DF249ADF
:1008F000259A08955E9A81EC9FEFDFDF5E9883E88A
:100900009FEFDBCF809101018095880F8E71EDE61E
:10091000F1E09481917E892B84830895EFE4F1E0E6
:1009200090E02191822F8295820F980F81E0E73528
:10093000F807B9F79F7081E009F080E00895E1E5DC
:10094000F1E090818181892792818927938189278C
:100950009481892795818927982F92959F7089275F
:10096000982F969596958927982F96958927817027
:100970000895FF920F931F93CF93DF9320E820BF3A
:10098000409178005091790081E090E001C0880F9B
:100990004A95EAF784688093640089E18093650052
:1009A00081E080937F0014B88FEC85B917B880EC94
:1009B00088B980E48AB99FEF9BB91DB88EB910BA87
:1009C00083EF81BB80E00FB6F894209361008093A1
:1009D00061000FBE83E085BD95E090938100809318
:1009E00069008BEC93EF69DF5E9889B18F7083307B
:1009F00011F40C94003F18E006E07CDF8BEC93EFE1
:100A00005CDF6EE780E0EFDD75DF8091590180915A
:100A10005901813121F080915901813371F5D9B1AA
:100A2000F0905901809159016EE7902F981B892F02
:100A3000DADD83E89FEF41DFC091590160E180E09A
:100A4000D2DD882309F465C07ADF882309F461C008
:100A50008C2F8F19883211F482E003C08E3039F464
:100A600083E08093740181E591E003DD47C081114B
:100A700050C0DF70DF30A1F7EFCF809159018111B5
:100A80001AC0E89830DF8DED25DF2DDF88E222DF08
:100A90002ADF82E91FDF27DF81EC9FEF0EDF6EE7A1
:100AA00080E0D3DD80915901882399F1809159012B
:100AB00081EC9FEF02DF80915901803469F46091ED
:100AC0005901809159016056912F981B892FBDDDE6
:100AD00083E89FEFF2DE04C0809159018234C9F4AB
:100AE00066E180E0B2DD8823A1F018DF882389F079
:100AF0008FE491E00BDD81E080937401E898F89435
:100B00008FE080930101DF91CF911F910F91FF90B2
:100B10000895E89872CF80917401813039F489B1D9
:100B20008093010166E180E090DD03C060E180E038
:100B30005ADDE898811114C0809100018F5F809385
:100B400000018B3040F0F89481E08093E00080E277
:100B50008093D800FFCF80917401813099F4D2CE78
:100B60001092000180917401813031F4D7DE882326
:100B7000B1F38FE491E0CACCE2DE882319F081E57D
:100B800091E077CC0895442351F0FB0125913491F5
:100B900041502817390731F06A5F7F4FF4CF80E06A
:100BA00090E00895CB010895BF92CF92DF92EF922B
:100BB000FF920F931F93CF93DF937C01D62FD42EF8
:100BC0008EEFB82E8091E800982F9570D9F382FDB2
:100BD00027C0CD2FD13408F0C0E4CC2E8701CA94B1
:100BE0008FEFC816A9F0D11003C0F80180810BC0A7
:100BF000F1E0DF1203C0F801849105C0F2E0DF12DA
:100C000004C0C80120D28093F1000F5F1F4FE7CFCF
:100C1000EC0EF11CB092E800DC1BA1F6C03491F29E
:100C2000DF91CF911F910F91FF90EF90DF90CF90C8
:100C3000BF900895CF93DF9380E090E004D28A3094
:100C400049F481E08093D70080EA8093D80082E164
:100C500089BD0DC0C0E0D0E0FE01E457FD4F6491B6
:100C6000CE01F9D12196CA30D105B1F7EACF09B446
:100C700000FEFDCF80E98093D8001092E00089E06B
:100C80008093E200DF91CF9108959FB7F89480910F
:100C90007501882321F02091760181E0211180E007
:100CA0009FBF08959FB7F89480917501882321F024
:100CB00080917601882319F09FBF80E0089584E039
:100CC0008093E9008091E80085FB882780F99FBF29
:100CD00091E0892708952FB7F89430917501332357
:100CE00021F030917601332319F02FBF80E0089571
:100CF00034E03093E900FC01615020F08191809351
:100D0000F100FACF8AE18093E8002FBF81E00895D7
:100D10001F920F920FB60F9211248F939F93809181
:100D2000E1001092E10083FF10C01092E90081E021
:100D30008093EB001092EC0082E38093ED0088E05A
:100D40008093F000109275013AC09091750199233B
:100D5000C1F180FF19C09091E20090FF15C0909101
:100D6000E2009E7F9093E2009091E2009061909368
:100D7000E2009091D80090629093D80099B59D7F41
:100D800099BD91E09093760184FF1BC08091E200B1
:100D900084FF17C089B5826089BD09B400FEFDCF0C
:100DA0008091D8008F7D8093D8008091E20081608F
:100DB0008093E2008091E2008F7E8093E2001092A7
:100DC00076019F918F910F900FBE0F901F901895F5
:100DD0001F920F920FB60F9211240F931F932F9310
:100DE0003F934F935F936F937F938F939F93AF93B3
:100DF000BF93CF93DF93EF93FF931092E90080911D
:100E0000E80083FFFFC09091F1008091F100C09154
:100E1000F1002091F100D0E0D22B2091F10040911F
:100E2000F1001091F1000091F10032EF3093E800F1
:100E3000863009F037C046E064EF70E0CE01A3DEF3
:100E40000097C9F480917401813021F444E06CED85
:100E500070E00CC0823021F444E064EC70E006C025
:100E6000833009F0CFC044E06CEA70E0CE018BDE45
:100E7000009709F4C7C0612F70E0702BFC01359614
:100E80002491AB014427452B09F06FEFFC01349608
:100E900044910296FC0185919491261708F08AC02E
:100EA000622F88C0853059F48EEF8093E8008091DE
:100EB000E80080FFFCCFC068C093E300AFC089307A
:100EC00039F591119FC08EEF8093E800C0937501B2
:100ED00088E191E041E04093E9009C012F5F3F4FA2
:100EE000FC0154915093EB00552359F0F9012491E2
:100EF0002093EC009C012D5F3F4F3196E491E093ED
:100F0000ED004F5F473011F0C901E5CF8EE743C0D8
:100F1000883041F4903809F075C080917501809354
:100F2000F10013C0811115C0923851F42093E900EB
:100F30008091EB0085FB882780F91092E90001C0C1
:100F400080E08093F1001092F1008EEF8093E80032
:100F500065C0813021F0833009F451C023C0923044
:100F600009F054C0209709F04DC02F773FEF320FA2
:100F70003630B0F49EEF9093E8002093E900833080
:100F800009F440C089E18093EB0081E090E001C06A
:100F9000880F2A95EAF78093EA001092EA003EC093
:100FA000813081F1823041F4913A61F540E061E0B5
:100FB0008CE691E0F9DD32C08A3021F5913211F5ED
:100FC0008EEF8093E800CD2FDD27209719F4109243
:100FD0005C0112C080916C01882341F020915C017A
:100FE00090E0821B91098C179D0714F081E002C0EC
:100FF0008C2F821B80935C01C0936C010FC09230D8
:1010000009F4B0CF81E28093EB0008C0913AD1F7A8
:1010100040E060915B018DE691E0CCCFFF91EF91D4
:10102000DF91CF91BF91AF919F918F917F916F9100
:101030005F914F913F912F911F910F910F900FBE94
:101040000F901F901895F999FECF92BD81BDF89A27
:10105000992780B50895262FF999FECF1FBA92BD22
:1010600081BD20BD0FB6F894FA9AF99A0FBE019689
:061070000895F894FFCF83
:00000001FF
